{
	"My scripts/DataTypes.sol": {
		"DataTypes": {
			"abi": [
				{
					"inputs": [],
					"name": "boo",
					"outputs": [
						{
							"internalType": "bool",
							"name": "",
							"type": "bool"
						}
					],
					"stateMutability": "view",
					"type": "function"
				},
				{
					"inputs": [],
					"name": "u",
					"outputs": [
						{
							"internalType": "uint256",
							"name": "",
							"type": "uint256"
						}
					],
					"stateMutability": "view",
					"type": "function"
				},
				{
					"inputs": [],
					"name": "u1",
					"outputs": [
						{
							"internalType": "uint256",
							"name": "",
							"type": "uint256"
						}
					],
					"stateMutability": "view",
					"type": "function"
				},
				{
					"inputs": [],
					"name": "u8",
					"outputs": [
						{
							"internalType": "uint8",
							"name": "",
							"type": "uint8"
						}
					],
					"stateMutability": "view",
					"type": "function"
				}
			],
			"devdoc": {
				"kind": "dev",
				"methods": {},
				"version": 1
			},
			"evm": {
				"assembly": "    /* \"My scripts/DataTypes.sol\":60:196  contract DataTypes {... */\n  mstore(0x40, 0x80)\n    /* \"My scripts/DataTypes.sol\":104:108  true */\n  0x01\n    /* \"My scripts/DataTypes.sol\":86:108  bool public boo = true */\n  0x00\n  dup1\n  0x0100\n  exp\n  dup2\n  sload\n  dup2\n  0xff\n  mul\n  not\n  and\n  swap1\n  dup4\n  iszero\n  iszero\n  mul\n  or\n  swap1\n  sstore\n  pop\n    /* \"My scripts/DataTypes.sol\":135:137  12 */\n  0x0c\n    /* \"My scripts/DataTypes.sol\":117:137  uint8 public u8 = 12 */\n  0x00\n  exp(0x0100, 0x01)\n  dup2\n  sload\n  dup2\n  0xff\n  mul\n  not\n  and\n  swap1\n  dup4\n  0xff\n  and\n  mul\n  or\n  swap1\n  sstore\n  pop\n    /* \"My scripts/DataTypes.sol\":160:164  1314 */\n  0x0522\n    /* \"My scripts/DataTypes.sol\":144:164  uint public u = 1314 */\n  0x01\n  sstore\n    /* \"My scripts/DataTypes.sol\":188:192  2345 */\n  0x0929\n    /* \"My scripts/DataTypes.sol\":171:192  uint public u1 = 2345 */\n  0x02\n  sstore\n    /* \"My scripts/DataTypes.sol\":60:196  contract DataTypes {... */\n  callvalue\n  dup1\n  iszero\n  tag_1\n  jumpi\n  0x00\n  dup1\n  revert\ntag_1:\n  pop\n  dataSize(sub_0)\n  dup1\n  dataOffset(sub_0)\n  0x00\n  codecopy\n  0x00\n  return\nstop\n\nsub_0: assembly {\n        /* \"My scripts/DataTypes.sol\":60:196  contract DataTypes {... */\n      mstore(0x40, 0x80)\n      callvalue\n      dup1\n      iszero\n      tag_1\n      jumpi\n      0x00\n      dup1\n      revert\n    tag_1:\n      pop\n      jumpi(tag_2, lt(calldatasize, 0x04))\n      shr(0xe0, calldataload(0x00))\n      dup1\n      0x1aa35610\n      eq\n      tag_3\n      jumpi\n      dup1\n      0x4b3df200\n      eq\n      tag_4\n      jumpi\n      dup1\n      0xab3a58a3\n      eq\n      tag_5\n      jumpi\n      dup1\n      0xc6a898c5\n      eq\n      tag_6\n      jumpi\n    tag_2:\n      0x00\n      dup1\n      revert\n        /* \"My scripts/DataTypes.sol\":171:192  uint public u1 = 2345 */\n    tag_3:\n      tag_7\n      tag_8\n      jump\t// in\n    tag_7:\n      mload(0x40)\n      tag_9\n      swap2\n      swap1\n      tag_10\n      jump\t// in\n    tag_9:\n      mload(0x40)\n      dup1\n      swap2\n      sub\n      swap1\n      return\n        /* \"My scripts/DataTypes.sol\":86:108  bool public boo = true */\n    tag_4:\n      tag_11\n      tag_12\n      jump\t// in\n    tag_11:\n      mload(0x40)\n      tag_13\n      swap2\n      swap1\n      tag_14\n      jump\t// in\n    tag_13:\n      mload(0x40)\n      dup1\n      swap2\n      sub\n      swap1\n      return\n        /* \"My scripts/DataTypes.sol\":117:137  uint8 public u8 = 12 */\n    tag_5:\n      tag_15\n      tag_16\n      jump\t// in\n    tag_15:\n      mload(0x40)\n      tag_17\n      swap2\n      swap1\n      tag_18\n      jump\t// in\n    tag_17:\n      mload(0x40)\n      dup1\n      swap2\n      sub\n      swap1\n      return\n        /* \"My scripts/DataTypes.sol\":144:164  uint public u = 1314 */\n    tag_6:\n      tag_19\n      tag_20\n      jump\t// in\n    tag_19:\n      mload(0x40)\n      tag_21\n      swap2\n      swap1\n      tag_10\n      jump\t// in\n    tag_21:\n      mload(0x40)\n      dup1\n      swap2\n      sub\n      swap1\n      return\n        /* \"My scripts/DataTypes.sol\":171:192  uint public u1 = 2345 */\n    tag_8:\n      sload(0x02)\n      dup2\n      jump\t// out\n        /* \"My scripts/DataTypes.sol\":86:108  bool public boo = true */\n    tag_12:\n      0x00\n      dup1\n      sload\n      swap1\n      0x0100\n      exp\n      swap1\n      div\n      0xff\n      and\n      dup2\n      jump\t// out\n        /* \"My scripts/DataTypes.sol\":117:137  uint8 public u8 = 12 */\n    tag_16:\n      0x00\n      0x01\n      swap1\n      sload\n      swap1\n      0x0100\n      exp\n      swap1\n      div\n      0xff\n      and\n      dup2\n      jump\t// out\n        /* \"My scripts/DataTypes.sol\":144:164  uint public u = 1314 */\n    tag_20:\n      sload(0x01)\n      dup2\n      jump\t// out\n        /* \"#utility.yul\":7:84   */\n    tag_22:\n        /* \"#utility.yul\":44:51   */\n      0x00\n        /* \"#utility.yul\":73:78   */\n      dup2\n        /* \"#utility.yul\":62:78   */\n      swap1\n      pop\n        /* \"#utility.yul\":7:84   */\n      swap2\n      swap1\n      pop\n      jump\t// out\n        /* \"#utility.yul\":90:208   */\n    tag_23:\n        /* \"#utility.yul\":177:201   */\n      tag_31\n        /* \"#utility.yul\":195:200   */\n      dup2\n        /* \"#utility.yul\":177:201   */\n      tag_22\n      jump\t// in\n    tag_31:\n        /* \"#utility.yul\":172:175   */\n      dup3\n        /* \"#utility.yul\":165:202   */\n      mstore\n        /* \"#utility.yul\":90:208   */\n      pop\n      pop\n      jump\t// out\n        /* \"#utility.yul\":214:436   */\n    tag_10:\n        /* \"#utility.yul\":307:311   */\n      0x00\n        /* \"#utility.yul\":345:347   */\n      0x20\n        /* \"#utility.yul\":334:343   */\n      dup3\n        /* \"#utility.yul\":330:348   */\n      add\n        /* \"#utility.yul\":322:348   */\n      swap1\n      pop\n        /* \"#utility.yul\":358:429   */\n      tag_33\n        /* \"#utility.yul\":426:427   */\n      0x00\n        /* \"#utility.yul\":415:424   */\n      dup4\n        /* \"#utility.yul\":411:428   */\n      add\n        /* \"#utility.yul\":402:408   */\n      dup5\n        /* \"#utility.yul\":358:429   */\n      tag_23\n      jump\t// in\n    tag_33:\n        /* \"#utility.yul\":214:436   */\n      swap3\n      swap2\n      pop\n      pop\n      jump\t// out\n        /* \"#utility.yul\":442:532   */\n    tag_24:\n        /* \"#utility.yul\":476:483   */\n      0x00\n        /* \"#utility.yul\":519:524   */\n      dup2\n        /* \"#utility.yul\":512:525   */\n      iszero\n        /* \"#utility.yul\":505:526   */\n      iszero\n        /* \"#utility.yul\":494:526   */\n      swap1\n      pop\n        /* \"#utility.yul\":442:532   */\n      swap2\n      swap1\n      pop\n      jump\t// out\n        /* \"#utility.yul\":538:647   */\n    tag_25:\n        /* \"#utility.yul\":619:640   */\n      tag_36\n        /* \"#utility.yul\":634:639   */\n      dup2\n        /* \"#utility.yul\":619:640   */\n      tag_24\n      jump\t// in\n    tag_36:\n        /* \"#utility.yul\":614:617   */\n      dup3\n        /* \"#utility.yul\":607:641   */\n      mstore\n        /* \"#utility.yul\":538:647   */\n      pop\n      pop\n      jump\t// out\n        /* \"#utility.yul\":653:863   */\n    tag_14:\n        /* \"#utility.yul\":740:744   */\n      0x00\n        /* \"#utility.yul\":778:780   */\n      0x20\n        /* \"#utility.yul\":767:776   */\n      dup3\n        /* \"#utility.yul\":763:781   */\n      add\n        /* \"#utility.yul\":755:781   */\n      swap1\n      pop\n        /* \"#utility.yul\":791:856   */\n      tag_38\n        /* \"#utility.yul\":853:854   */\n      0x00\n        /* \"#utility.yul\":842:851   */\n      dup4\n        /* \"#utility.yul\":838:855   */\n      add\n        /* \"#utility.yul\":829:835   */\n      dup5\n        /* \"#utility.yul\":791:856   */\n      tag_25\n      jump\t// in\n    tag_38:\n        /* \"#utility.yul\":653:863   */\n      swap3\n      swap2\n      pop\n      pop\n      jump\t// out\n        /* \"#utility.yul\":869:955   */\n    tag_26:\n        /* \"#utility.yul\":904:911   */\n      0x00\n        /* \"#utility.yul\":944:948   */\n      0xff\n        /* \"#utility.yul\":937:942   */\n      dup3\n        /* \"#utility.yul\":933:949   */\n      and\n        /* \"#utility.yul\":922:949   */\n      swap1\n      pop\n        /* \"#utility.yul\":869:955   */\n      swap2\n      swap1\n      pop\n      jump\t// out\n        /* \"#utility.yul\":961:1073   */\n    tag_27:\n        /* \"#utility.yul\":1044:1066   */\n      tag_41\n        /* \"#utility.yul\":1060:1065   */\n      dup2\n        /* \"#utility.yul\":1044:1066   */\n      tag_26\n      jump\t// in\n    tag_41:\n        /* \"#utility.yul\":1039:1042   */\n      dup3\n        /* \"#utility.yul\":1032:1067   */\n      mstore\n        /* \"#utility.yul\":961:1073   */\n      pop\n      pop\n      jump\t// out\n        /* \"#utility.yul\":1079:1293   */\n    tag_18:\n        /* \"#utility.yul\":1168:1172   */\n      0x00\n        /* \"#utility.yul\":1206:1208   */\n      0x20\n        /* \"#utility.yul\":1195:1204   */\n      dup3\n        /* \"#utility.yul\":1191:1209   */\n      add\n        /* \"#utility.yul\":1183:1209   */\n      swap1\n      pop\n        /* \"#utility.yul\":1219:1286   */\n      tag_43\n        /* \"#utility.yul\":1283:1284   */\n      0x00\n        /* \"#utility.yul\":1272:1281   */\n      dup4\n        /* \"#utility.yul\":1268:1285   */\n      add\n        /* \"#utility.yul\":1259:1265   */\n      dup5\n        /* \"#utility.yul\":1219:1286   */\n      tag_27\n      jump\t// in\n    tag_43:\n        /* \"#utility.yul\":1079:1293   */\n      swap3\n      swap2\n      pop\n      pop\n      jump\t// out\n\n    auxdata: 0xa264697066735822122047c603ca058450b6df058ec09c3c76f12aaefde501edec9a03ea00bcfd847aec64736f6c63430008120033\n}\n",
				"bytecode": {
					"linkReferences": {},
					"object": "608060405260016000806101000a81548160ff021916908315150217905550600c600060016101000a81548160ff021916908360ff16021790555061052260015561092960025534801561005257600080fd5b506101d0806100626000396000f3fe608060405234801561001057600080fd5b506004361061004c5760003560e01c80631aa35610146100515780634b3df2001461006f578063ab3a58a31461008d578063c6a898c5146100ab575b600080fd5b6100596100c9565b6040516100669190610112565b60405180910390f35b6100776100cf565b6040516100849190610148565b60405180910390f35b6100956100e0565b6040516100a2919061017f565b60405180910390f35b6100b36100f3565b6040516100c09190610112565b60405180910390f35b60025481565b60008054906101000a900460ff1681565b600060019054906101000a900460ff1681565b60015481565b6000819050919050565b61010c816100f9565b82525050565b60006020820190506101276000830184610103565b92915050565b60008115159050919050565b6101428161012d565b82525050565b600060208201905061015d6000830184610139565b92915050565b600060ff82169050919050565b61017981610163565b82525050565b60006020820190506101946000830184610170565b9291505056fea264697066735822122047c603ca058450b6df058ec09c3c76f12aaefde501edec9a03ea00bcfd847aec64736f6c63430008120033",
					"opcodes": "PUSH1 0x80 PUSH1 0x40 MSTORE PUSH1 0x1 PUSH1 0x0 DUP1 PUSH2 0x100 EXP DUP2 SLOAD DUP2 PUSH1 0xFF MUL NOT AND SWAP1 DUP4 ISZERO ISZERO MUL OR SWAP1 SSTORE POP PUSH1 0xC PUSH1 0x0 PUSH1 0x1 PUSH2 0x100 EXP DUP2 SLOAD DUP2 PUSH1 0xFF MUL NOT AND SWAP1 DUP4 PUSH1 0xFF AND MUL OR SWAP1 SSTORE POP PUSH2 0x522 PUSH1 0x1 SSTORE PUSH2 0x929 PUSH1 0x2 SSTORE CALLVALUE DUP1 ISZERO PUSH2 0x52 JUMPI PUSH1 0x0 DUP1 REVERT JUMPDEST POP PUSH2 0x1D0 DUP1 PUSH2 0x62 PUSH1 0x0 CODECOPY PUSH1 0x0 RETURN INVALID PUSH1 0x80 PUSH1 0x40 MSTORE CALLVALUE DUP1 ISZERO PUSH2 0x10 JUMPI PUSH1 0x0 DUP1 REVERT JUMPDEST POP PUSH1 0x4 CALLDATASIZE LT PUSH2 0x4C JUMPI PUSH1 0x0 CALLDATALOAD PUSH1 0xE0 SHR DUP1 PUSH4 0x1AA35610 EQ PUSH2 0x51 JUMPI DUP1 PUSH4 0x4B3DF200 EQ PUSH2 0x6F JUMPI DUP1 PUSH4 0xAB3A58A3 EQ PUSH2 0x8D JUMPI DUP1 PUSH4 0xC6A898C5 EQ PUSH2 0xAB JUMPI JUMPDEST PUSH1 0x0 DUP1 REVERT JUMPDEST PUSH2 0x59 PUSH2 0xC9 JUMP JUMPDEST PUSH1 0x40 MLOAD PUSH2 0x66 SWAP2 SWAP1 PUSH2 0x112 JUMP JUMPDEST PUSH1 0x40 MLOAD DUP1 SWAP2 SUB SWAP1 RETURN JUMPDEST PUSH2 0x77 PUSH2 0xCF JUMP JUMPDEST PUSH1 0x40 MLOAD PUSH2 0x84 SWAP2 SWAP1 PUSH2 0x148 JUMP JUMPDEST PUSH1 0x40 MLOAD DUP1 SWAP2 SUB SWAP1 RETURN JUMPDEST PUSH2 0x95 PUSH2 0xE0 JUMP JUMPDEST PUSH1 0x40 MLOAD PUSH2 0xA2 SWAP2 SWAP1 PUSH2 0x17F JUMP JUMPDEST PUSH1 0x40 MLOAD DUP1 SWAP2 SUB SWAP1 RETURN JUMPDEST PUSH2 0xB3 PUSH2 0xF3 JUMP JUMPDEST PUSH1 0x40 MLOAD PUSH2 0xC0 SWAP2 SWAP1 PUSH2 0x112 JUMP JUMPDEST PUSH1 0x40 MLOAD DUP1 SWAP2 SUB SWAP1 RETURN JUMPDEST PUSH1 0x2 SLOAD DUP2 JUMP JUMPDEST PUSH1 0x0 DUP1 SLOAD SWAP1 PUSH2 0x100 EXP SWAP1 DIV PUSH1 0xFF AND DUP2 JUMP JUMPDEST PUSH1 0x0 PUSH1 0x1 SWAP1 SLOAD SWAP1 PUSH2 0x100 EXP SWAP1 DIV PUSH1 0xFF AND DUP2 JUMP JUMPDEST PUSH1 0x1 SLOAD DUP2 JUMP JUMPDEST PUSH1 0x0 DUP2 SWAP1 POP SWAP2 SWAP1 POP JUMP JUMPDEST PUSH2 0x10C DUP2 PUSH2 0xF9 JUMP JUMPDEST DUP3 MSTORE POP POP JUMP JUMPDEST PUSH1 0x0 PUSH1 0x20 DUP3 ADD SWAP1 POP PUSH2 0x127 PUSH1 0x0 DUP4 ADD DUP5 PUSH2 0x103 JUMP JUMPDEST SWAP3 SWAP2 POP POP JUMP JUMPDEST PUSH1 0x0 DUP2 ISZERO ISZERO SWAP1 POP SWAP2 SWAP1 POP JUMP JUMPDEST PUSH2 0x142 DUP2 PUSH2 0x12D JUMP JUMPDEST DUP3 MSTORE POP POP JUMP JUMPDEST PUSH1 0x0 PUSH1 0x20 DUP3 ADD SWAP1 POP PUSH2 0x15D PUSH1 0x0 DUP4 ADD DUP5 PUSH2 0x139 JUMP JUMPDEST SWAP3 SWAP2 POP POP JUMP JUMPDEST PUSH1 0x0 PUSH1 0xFF DUP3 AND SWAP1 POP SWAP2 SWAP1 POP JUMP JUMPDEST PUSH2 0x179 DUP2 PUSH2 0x163 JUMP JUMPDEST DUP3 MSTORE POP POP JUMP JUMPDEST PUSH1 0x0 PUSH1 0x20 DUP3 ADD SWAP1 POP PUSH2 0x194 PUSH1 0x0 DUP4 ADD DUP5 PUSH2 0x170 JUMP JUMPDEST SWAP3 SWAP2 POP POP JUMP INVALID LOG2 PUSH5 0x6970667358 0x22 SLT KECCAK256 SELFBALANCE 0xC6 SUB 0xCA SDIV DUP5 POP 0xB6 0xDF SDIV DUP15 0xC0 SWAP13 EXTCODECOPY PUSH23 0xF12AAEFDE501EDEC9A03EA00BCFD847AEC64736F6C6343 STOP ADDMOD SLT STOP CALLER "
				},
				"gasEstimates": {
					"creation": {
						"codeDepositCost": "92800",
						"executionCost": "92937",
						"totalCost": "185737"
					},
					"external": {
						"boo()": "2468",
						"u()": "2473",
						"u1()": "2407",
						"u8()": "2543"
					}
				},
				"methodIdentifiers": {
					"boo()": "4b3df200",
					"u()": "c6a898c5",
					"u1()": "1aa35610",
					"u8()": "ab3a58a3"
				}
			},
			"storageLayout": {
				"storage": [
					{
						"astId": 4,
						"contract": "My scripts/DataTypes.sol:DataTypes",
						"label": "boo",
						"offset": 0,
						"slot": "0",
						"type": "t_bool"
					},
					{
						"astId": 7,
						"contract": "My scripts/DataTypes.sol:DataTypes",
						"label": "u8",
						"offset": 1,
						"slot": "0",
						"type": "t_uint8"
					},
					{
						"astId": 10,
						"contract": "My scripts/DataTypes.sol:DataTypes",
						"label": "u",
						"offset": 0,
						"slot": "1",
						"type": "t_uint256"
					},
					{
						"astId": 13,
						"contract": "My scripts/DataTypes.sol:DataTypes",
						"label": "u1",
						"offset": 0,
						"slot": "2",
						"type": "t_uint256"
					}
				],
				"types": {
					"t_bool": {
						"encoding": "inplace",
						"label": "bool",
						"numberOfBytes": "1"
					},
					"t_uint256": {
						"encoding": "inplace",
						"label": "uint256",
						"numberOfBytes": "32"
					},
					"t_uint8": {
						"encoding": "inplace",
						"label": "uint8",
						"numberOfBytes": "1"
					}
				}
			},
			"userdoc": {
				"kind": "user",
				"methods": {},
				"version": 1
			}
		}
	}
}